:020000040000fa
:080000000001040000000000f3
:020000040000fa
:04000800ce02000024
:020000040000fa
:04000c00ce02000020
:020000040000fa
:04001000ce0200001c
:020000040000fa
:04001400ce02000018
:020000040000fa
:04001800ce02000014
:020000040000fa
:04001c00ce02000010
:020000040000fa
:04002000ce0200000c
:020000040000fa
:04002400ce02000008
:020000040000fa
:04002800ce02000004
:020000040000fa
:04002c00ce02000000
:020000040000fa
:04003000ce020000fc
:020000040000fa
:04003400ce020000f8
:020000040000fa
:04003800ce020000f4
:020000040000fa
:04003c00ce020000f0
:020000040000fa
:04004000ce020000ec
:020000040000fa
:04004400ce020000e8
:020000040000fa
:04004800ce020000e4
:020000040000fa
:04004c00ce020000e0
:020000040000fa
:04005000ce020000dc
:020000040000fa
:04005400ce020000d8
:020000040000fa
:04005800ce020000d4
:020000040000fa
:04005c00ce020000d0
:020000040000fa
:04006000ce020000cc
:020000040000fa
:04006400ce020000c8
:020000040000fa
:04006800c8010000cb
:020000040000fa
:04006c00ce020000c0
:020000040000fa
:04007000ce020000bc
:020000040000fa
:04007400ce020000b8
:020000040000fa
:04007800ce020000b4
:020000040000fa
:04007c00ce020000b0
:020000040000fa
:04008000ce020000ac
:020000040000fa
:04008400f001000087
:020000040000fa
:04008800ce020000a4
:020000040000fa
:04008c00ce020000a0
:020000040000fa
:04009000ce0200009c
:020000040000fa
:04009400ce02000098
:020000040000fa
:04009800ce02000094
:020000040000fa
:04009c00ce02000090
:020000040000fa
:0400a000ce0200008c
:020000040000fa
:0400a400ce02000088
:020000040000fa
:0400a800ce02000084
:020000040000fa
:0400ac00ce02000080
:020000040000fa
:0400b000ce0200007c
:020000040000fa
:0400b400ce02000078
:020000040000fa
:0400b800180200002a
:020000040000fa
:0400bc0044020000fa
:020000040000fa
:0400c000ce0200006c
:020000040000fa
:0400c400ce02000068
:020000040000fa
:0400c800ce02000064
:020000040000fa
:0400cc0070020000be
:020000040000fa
:0400d000ce0200005c
:020000040000fa
:0400d400ce02000058
:020000040000fa
:0400d800ce02000054
:020000040000fa
:04010800ce02000023
:020000040000fa
:04010c00ce0200001f
:020000040000fa
:04011000ce0200001b
:020000040000fa
:04011400ce02000017
:020000040000fa
:04011800ce02000013
:020000040000fa
:04011c00ce0200000f
:020000040000fa
:04012000ce0200000b
:020000040000fa
:04012400ce02000007
:020000040000fa
:04012800ce02000003
:020000040000fa
:04012c00ce020000ff
:020000040000fa
:04013000ce020000fb
:020000040000fa
:04013400ce020000f7
:020000040000fa
:04013800ce020000f3
:020000040000fa
:04013c00ce020000ef
:020000040000fa
:04014000ce020000eb
:020000040000fa
:04014400ce020000e7
:020000040000fa
:04014800ce020000e3
:020000040000fa
:04014c00ce020000df
:020000040000fa
:04015000ce020000db
:020000040000fa
:04015400ce020000d7
:020000040000fa
:04015800ce020000d3
:020000040000fa
:04015c00ce020000cf
:020000040000fa
:04016000ce020000cb
:020000040000fa
:04016400ce020000c7
:020000040000fa
:04016800ce020000c3
:020000040000fa
:04016c00ce020000bf
:020000040000fa
:04017000ce020000bb
:020000040000fa
:04017400ce020000b7
:020000040000fa
:04017800ce020000b3
:020000040000fa
:04017c00ce020000af
:020000040000fa
:04018000ce020000ab
:020000040000fa
:04018400ce020000a7
:020000040000fa
:04018800ce020000a3
:020000040000fa
:04018c00ce0200009f
:020000040000fa
:04019000ce0200009b
:020000040000fa
:04019400ce02000097
:020000040000fa
:04019800ce02000093
:020000040000fa
:04019c00ce0200008f
:020000040000fa
:0401a000ce0200008b
:020000040000fa
:0401a400ce02000087
:020000040000fa
:0401a800ce02000083
:020000040000fa
:0401ac00ce0200007f
:020000040000fa
:0401b000ce0200007b
:020000040000fa
:0401b400ce02000077
:020000040000fa
:0401b800ce02000073
:020000040000fa
:0401bc00ce0200006f
:020000040000fa
:0401c000ce0200006b
:020000040000fa
:0401c400ce02000067
:020000040000fa
:0401c800ce02000063
:020000040000fa
:0401cc00ce0200005f
:020000040000fa
:0401d000ce0200005b
:020000040000fa
:0401d400ce02000057
:020000040000fa
:0401d800ce02000053
:020000040000fa
:100200000f8320000e7f22000e01880000000000f6
:10021000000020000000e000020032000001200089
:100220002002880014000700de0007000000e00044
:1002300003003a00a0542000010020000200370013
:100240000000200001002000810f7000010032003a
:1002500014000700000020000000e000020032004f
:1002600000000200000000006e0402000000000018
:100270000040da000000fe004440a900a000200079
:100280000000e0000300320000002000a001880010
:100290004440a800000006008a1f78008b1f7800e9
:1002a0000000060091018800800478000000eb0047
:1002b0001a003700e284440032a0b4009905ba0065
:1002c000e284440032a0b4009906ba00e2844400fb
:1002d00032a0b4000006eb00476fde00fd07b2005d
:1002e000636ce10003003a00ebff07000000eb0045
:1002f0000a003700606ce10004003a00005deb008a
:100300008b05e900fdff3e00040037006168e10055
:10031000010032000086eb000b00070019c7ba008d
:100320001905ba000e04e00003003a000a00e000dc
:10033000e0ff3a0000000600fe07b2009e018800c0
:100340008a047800f5ff3700395dba008b05e900b3
:100350000c003200295dba008b05e900080032006c
:100360000c00e00003003a00e284440032a0b40034
:10037000f5ff370019ddba008b05e900faff3a00f6
:100380008904e800e184440032a0b40000000600c3
:10039000801f78003400f80000002000a0018800d1
:1003a0000000fa00304080000000e0000700340048
:1003b000304080000000e90030408800100020003c
:1003c0000040880010002000104088008600a9002e
:1003d0000080fa003400f9004f0078000040060069
:1003e000801f78003400f80000002000a001880081
:1003f0000000fa0030408000fe0f500007003c0073
:10040000304080000000e8003040880010002000ec
:1004100000408800100020001040880086e0a900fd
:100420000080fa003400f9004f0078000040060018
:10043000809fbe003400f80000002000a00188006a
:100440000000fa00a01680004200de00614060005b
:1004500000c0ea00614060000080fb0061006000b5
:100460004200dd00a11680000120a1000100700003
:10047000a01688008880a9000080fa003400f900e6
:100480004f00be0000400600809fbe003400f80010
:1004900000002000a00188000000fa00a0168000e3
:1004a0004300de006140600000c0ea00614060007f
:1004b0000080fb00610060004300dd00a1168000a9
:1004c0000130a10001007000a016880088a0a900da
:1004d0000080fa003400f9004f00be000040060022
:1004e0003600f800809fbe00821f78003400f800bc
:1004f00000002000a00188000400fa0020408000d5
:1005000080004000808020000080400010007800c3
:10051000800078000100a100010f78000000eb00ce
:1005200010079800004080000000e0000800320042
:100530001e00a00031408000f00f2000008060000d
:10054000001cb0004200dd00100798000028ef00fa
:100550001e007800c01288001e009000d012880093
:10056000204080008000e800400120000001780069
:10057000110009008200d8008000fd0020408800a2
:100580008920a9000080fa003400f9004f017800aa
:100590004f00be003600f900004006000040da00bf
:0805a0000000fe000000050050
:020000040000fa
:1005a800566f00006c7500006d650000203d00006e
:0405b800200000001f
:020000040000fa
:1005bc000000fa00dec2a80011128000001e20000c
:1005cc00010070001012880010128000f000b300bf
:1005dc001012880060002000201288004022ef00da
:1005ec0010102000401288001010200060128800ab
:1005fc0011128000f03f2f000080600000a0a000ce
:10060c001012880010002000c0128800003020005a
:10061c00d0128800e0c2a800dec2a900e0c2a90086
:10062c00100020004c000700e0c2a80041e2a80026
:10063c000000000030128000610060000000e0004b
:10064c00fcff320010002000c01288003041200056
:10065c00d0128800000000003012800061006000a1
:10066c000000e000fcff320010002000c0128800e7
:10067c0000202000d0128800000000003012800002
:10068c00610060000000e000fcff32001000200060
:10069c00c0128800a0102000d012880000000000ba
:1006ac0030128000610060000000e000fcff3200ae
:1006bc0010002000c012880070542000d012880056
:1006cc000000000030128000610060000000e000bb
:1006dc00fcff320010002000c0128800e0652000f2
:1006ec00d012880000000000301280006100600011
:1006fc000000e000fcff320010002000c012880057
:10070c00c0732000d012880000000000301280005e
:10071c00610060000000e000fcff320010002000cf
:10072c00c012880000902000d01288000000000049
:10073c0030128000610060000000e000fcff32001d
:10074c0000712200040007008920a9009120a80054
:10075c000080fa00000006000400fa001007980060
:10076c000000eb00000f78000300370027010900a0
:10077c00000000001e0fe8001e0090009e00780094
:10078c00808f5000f9ff39000080fa00000006004d
:10079c000000fa00e922a800e522a90028a2a8007e
:1007ac0041118000c0ff2f00008060000000a000fd
:1007bc004011880040118000c001b3004011880036
:1007cc002902a90028c2a900e922a90027e2a80051
:1007dc000080fa00000006000200fa00004f7800ca
:1007ec001e00fb005011880000000000301180003a
:1007fc00620060000000e000fcff3a000080fa009c
:10080c00000006000200fa00004f780080cab30016
:10081c00f1ff07001e407800efff07000080fa0090
:10082c00000006000200fa00000f78000080fa00b9
:10083c00000006000000fa0000c8b300e6ff070045
:10084c000080fa00000006000000fa0010c8b30097
:10085c00e1ff07000080fa00000006000000fa002b
:10086c0020c8b300dcff07000080fa00000006007f
:10087c000400fa00000f7800110798000080fa00bd
:10088c00000006000400fa00100798000000eb00be
:10089c00000f7800060037001e0078009e009000c4
:1008ac000080400010407800d6ff07001e0fe800c3
:1008bc001e0078009e0090000080400010407800e0
:1008cc000004e000f4ff3a000080fa00000006008b
:1008dc000000fa00aeff07003b00070046000700cf
:1008ec00510007005c000700dcff070030ff070029
:1008fc00402d2800e3ff0700324080007066260080
:10090c000090b900c288de004f90de0000805000dd
:10091c00004078000043b000baff0700314080006f
:10092c00706626000089b9004299de004f88de000f
:10093c00000051006a01b9000200780000805000ec
:10094c00004078000043b000aeff07000100370004
:10095c000000000010408000e10f5000fcff3a0046
:10096c00beff0700402d2800c6ff07003240800064
:10097c00706626000090b900c288de004f90de0041
:10098c0000805000004078000043b0009dff07003d
:10099c0031408000706626000089b9004299de0063
:1009ac004f88de00000051006a01b9000200780097
:1009bc0000805000004078000043b00091ff070019
:1009cc000228ef00e3ff37000000fa00d202a90072
:1009dc008220a800e104800080ff2f0000806000ce
:1009ec000000a000e00488008600a9008e00a8008a
:1009fc000080fa00000006000000fa00d222a900d4
:100a0c008240a800f1048000f0ff28000080600004
:100a1c0000c0a000f004880086e0a9008ee0a800c9
:100a2c000080fa00000006000000fa00d242a90083
:100a3c008260a8003105800080ff2f0000806000dc
:100a4c000000a000300588008880a9009080a800d4
:100a5c000080fa00000006000000fa00d262a90033
:100a6c008280a80031058000f0f82f000080600023
:100a7c000040a0003005880088a0a90090a0a80024
:080a8c000080fa0000000600e2
:020000040000fa
:100a940008080000280000000200000000007500a3
:100aa40029734e00fa6af9007b997f007875ab00d0
:100ab4005ea93d000116fb00eb1cc400b2a2590064
:100ac4008b9380008b83ee0093f9af00a5d4fe00d6
:100ad400fd00000006080000020000000200000003
:100ae40017000000000800000600000000000000dd
:040af40000000000fe
:020000040000fa
:0200000401f009
:04000000f7bf000046
:020000040000fa
:0200000401f009
:04000400ff7f00007a
:020000040000fa
:0200000401f009
:04000800ffff0000f6
:020000040000fa
:0200000401f009
:04001400ffff0000ea
:020000040000fa
:0200000401f009
:04001800ffff0000e6
:00000001FF
